:100000000C9468030C94AD040C9485030C94850344
:100010000C9485030C9485030C9485030C94850340
:100020000C9485030C9485030C9485030C94850330
:100030000C9485030C9485030C9485030C94850320
:100040000C9485030C9485030C9485030C94850310
:100050000C9485030C9485030C9485030C94850300
:100060000C9485030C9485030C9485030C948503F0
:100070007B0B820B890B900B970B9E0BA50BAC0B8C
:10008000000000000000000000065F5F06000000A6
:100090000007070007070000147F7F147F7F14000C
:1000A000242E6B6B3A120000466630180C66620014
:1000B000307A4F5D377A48000407030000000000E3
:1000C000001C3E63410000000041633E1C00000034
:1000D000082A3E1C1C3E2A0808083E3E080800006C
:1000E00000A0E06000000000080808080808000000
:1000F00000006060000000006030180C0603010082
:100100003E7F594D7F3E000042427F7F40400000CD
:10011000627359496F660000226349497F360000C7
:10012000181C16137F7F1000276745457D39000096
:100130003C7E4B4979300000036371190F070000C2
:10014000367F49497F360000064F49693F1E00004F
:1001500000006C6C0000000000A0EC6C00000000CF
:10016000081C366341000000141414141414000019
:10017000004163361C080000020351590F060000BD
:100180003E7F415D5D1F1E007C7E13137E7C000060
:10019000417F7F49497F36001C3E63414163220015
:1001A000417F7F41637F1C00417F7F495D41630048
:1001B000417F7F491D0103001C3E63415173720062
:1001C0007F7F08087F7F000000417F7F41000000A3
:1001D000307040417F3F0100417F7F081C77630002
:1001E000417F7F41406070007F7F060C067F7F006B
:1001F0007F7F060C187F7F001C3E6341633E1C001E
:10020000417F7F49090F06001E3F21717F5E00007C
:10021000417F7F19396F460026674D597B320000B8
:1002200003417F7F410300007F7F40407F7F0000CC
:100230001F3F60603F1F00007F7F3018307F7F00CE
:1002400063771C081C776300074F78784F0700001E
:100250006773594D47637100007F7F414100000083
:100260000103060C183060000041417F7F00000050
:10027000080C0603060C0800808080808080808047
:100280000000030704000000207454543C78400030
:10029000413F7F44447C3800387C44446C28000053
:1002A000307848493F7F4000387C54545C18000047
:1002B000487E7F490302000098BCA4A4F87C040097
:1002C000417F7F08047C780000447D7D4000000071
:1002D00040C484FD7D000000417F7F10386C4400E5
:1002E00000417F7F400000007C7C0C180C7C780073
:1002F0007C7C04047C780000387C44447C3800001A
:1003000084FCF8A4243C1800183C24A4F8FC8400C5
:10031000447C78441C180000485C54547424000049
:1003200000043E7F442400003C7C40403C7C400074
:100330001C3C60603C1C00003C7C6030607C3C00ED
:10034000446C3810386C44009CBCA0A0FC7C0000BD
:100350004C64745C4C64000008083E774141000026
:1003600000000077770000004141773E0808000058
:100370000203010302030100000000000000005F0F
:1003800000000007000700147F147F14242A7F2A2E
:1003900012231308646236495522500005030000F9
:1003A000001C2241000041221C00082A1C2A0808C7
:1003B000083E0808005030000008080808080060DF
:1003C00060000020100804023E5149453E00427F73
:1003D000400042615149462141454B311814127F7A
:1003E0001027454545393C4A494930017109050303
:1003F0003649494936064949291E0036360000006B
:10040000563600000008142241141414141441221A
:100410001408000201510906324979413E7E11114A
:10042000117E7F494949363E414141227F41412267
:100430001C7F494949417F090901013E414151322F
:100440007F0808087F00417F41002040413F017F35
:10045000081422417F404040407F0204027F7F0415
:1004600008107F3E4141413E7F090909063E415146
:10047000215E7F09192946464949493101017F0119
:10048000013F4040403F1F2040201F7F2018207F19
:10049000631408146303047804036151494543005D
:1004A000007F4141020408102041417F0000040206
:1004B0000102044040404040000102040020545426
:1004C00054787F48444438384444442038444448AD
:1004D0007F3854545418087E090102081454543CBF
:1004E0007F0804047800447D40002040443D000023
:1004F0007F10284400417F40007C041804787C0869
:1005000004047838444444387C141414080814143F
:10051000187C7C080404084854545420043F444088
:10052000203C4040207C1C2040201C3C4030403C73
:1005300044281028440C5050503C4464544C44000F
:100540000836410000007F0000004136080002012B
:1005500003020100000000005C00000C000C007CA5
:10056000287C2858DC6800241048002854284000C3
:100570000C00000078840084780000543854001087
:100580007C1000804000001010100000400000604F
:10059000100C0038543800487C400048645800442F
:1005A000542C001C107C005C54240038542400643B
:1005B000140C0068542C0048543800004800008097
:1005C000480000102844002828280044281000046F
:1005D00054080038445C00781478007C54280038B3
:1005E0004428007C4438007C5444007C14040038C7
:1005F0004474007C107C00447C440020403C007C1F
:10060000106C007C4040007C187C0078103C003866
:100610004438007C1408003844B8007C1468004852
:10062000542400047C04007C407C003C603C007C42
:10063000307C006C106C000C700C0064544C00009A
:100640007C44000C106000447C000008040800801A
:1006500080800000040800304878007C483000307A
:1006600048480030487C00306850001078140090F2
:10067000A878007C08700050744000808074007C72
:10068000106800447C4000781078007808700030D2
:10069000483000F82810003048F800781008005062
:1006A000582800083C480038407800384038007826
:1006B0002078004830480098A0780048685800101A
:1006C000788400007C00008478100008040804008E
:1006D00011241FBECFEFD4E0DEBFCDBF12E0A0E0FB
:1006E000B1E0E8EDF2E202C005900D92A43BB10743
:1006F000D9F722E0A4EBB2E001C01D92AA3CB207F8
:10070000E1F70E9470080C946A110C940000B89AEA
:1007100083B7886083BF83B7806183BF83B78160FD
:1007200083BF83E081BF0895813031F068F082306B
:1007300029F0833029F006C081E807C082E805C0AF
:1007400083E803C080E001C080E8E0910601F091F9
:100750000701808389EF90E00197F1F700C0000066
:10076000E0910601F091070180818093B8028091A9
:10077000B80208958A98F8948BB780648BBF85B7C8
:10078000826085BF789463E08BE20E9483080895BD
:100790000E94D2080E94BA038EE00E9475088295DA
:1007A000869587701F928F938CE091E09F938F9333
:1007B0000E94470E0F900F900F900F900895CF92C8
:1007C000DF92EF92FF921F93CF93DF936C01FC01B6
:1007D000C081D1816C2F6295660F607E82E30E949A
:1007E0008308BE01769567957695679576956795AA
:1007F00081E30E948308F60162816F7085E30E94A5
:100800008308F60182818823A9F07601F3E0EF0ED8
:10081000F11C16E3C0E0D0E0F70161917F01812F68
:100820000E94830821961F5FF601828190E0C8171D
:10083000D90794F340E064E08CE20E94B40880E0C1
:1008400090E00E949508DF91CF911F91FF90EF906B
:10085000DF90CF9008958F929F92AF92BF92CF92E8
:10086000DF92EF92FF920F931F93CF93DF93CDB759
:10087000DEB72B970FB6F894DEBF0FBECDBF4C018D
:1008800081E60E947508A82E82E60E94750882956E
:1008900086958770B12CAA0CBB1CAA0CBB1CAA0C99
:1008A000BB1CA82A85E60E947508082F0F70A9F0C6
:1008B0007E0124E0E20EF11CCE01800F911DFC01AF
:1008C00034966F0116E6812F0E947508F701819317
:1008D0007F011F5FEC15FD05B1F7BA82A9820B837A
:1008E0008BE0FE013196D40101900D928A95E1F7DB
:1008F00040E061E08CE20E94B4082B960FB6F894B9
:10090000DEBF0FBECDBFDF91CF911F910F91FF9042
:10091000EF90DF90CF90BF90AF909F908F90089511
:10092000CF93DF93EC0140E061E08CE20E94B408D9
:100930008091B4029091B502009761F0CE010E94BF
:100940002B041092B5021092B40285B7806285BF65
:1009500081E090E0DF91CF9108951F920F920FB642
:100960000F9211248F939F9381E090E09093B502B2
:100970008093B4029F918F910F900FBE0F901F90A4
:10098000189584E08093B902089585E08093B902B8
:10099000089588E08093B90208951092BA020895EC
:1009A00081E08093BA02089585E08093BA020895A9
:1009B000E9EBF2E081E0828384830895E9EBF2E0E1
:1009C000128281E0848308958091BC02811106C067
:1009D000E9EBF2E082E0848381E086830895EF9280
:1009E000FF920F931F93CF93DF93CDB7DEB763973B
:1009F0000FB6F894DEBF0FBECDBF7C01CE010196CD
:100A00000E9490048C819091BE02981731F1E9EB1D
:100A1000F2E085838381882319F081508093BC02A2
:100A20008091BC021F928F9387E191E09F938F93F7
:100A30008E01045F1F4F1F930F930E945D0ED7011D
:100A4000ED91FC910284F385E02D158304830F90D2
:100A50000F900F900F900F900F9063960FB6F89431
:100A6000DEBF0FBECDBFDF91CF911F910F91FF90E1
:100A7000EF9008952F923F924F925F926F927F92E4
:100A80008F929F92AF92BF92CF92DF92EF92FF929E
:100A90000F931F93CF93DF93CDB7DEB72E970FB68B
:100AA000F894DEBF0FBECDBF4C018FE190E00E94F5
:100AB000CC0C0E94B60C0E9487030E94E90A0E9497
:100AC000C80385E0E9EBF2E0808381E08093BB021C
:100AD0001092BD0293E09093BC021092BE0210925D
:100AE000BF028093BA0240E050E060E070E080E234
:100AF00091E00E9407096C01AC0160E070E085E2C2
:100B000091E00E9407097C01A60160E070E08EE29E
:100B100091E00E9407098C01A60160E070E089E382
:100B200091E00E9407095C01A70168ED74E082E48E
:100B300091E00E9407099A838983A7016EED74E012
:100B400089E491E00E94070998878F83A8016DECE2
:100B500074E082E591E00E9407099C838B83A801E1
:100B600060ED74E087E591E00E9407099E838D8324
:100B7000A80164ED74E082E691E00E9407099A877B
:100B80008987A50160E070E08AE691E00E9407098C
:100B90001C01A5016AEF78E087E791E00E94070950
:100BA0009C878B87A10161EC74E083E891E00E944F
:100BB00007092C01A10165EC74E08FE891E00E9427
:100BC00007093C01A10169EC74E08BE991E00E9406
:100BD00007099E878D87B701C6010E942809698190
:100BE0007A81C7010E9428096B817C81C8010E941B
:100BF0002809B101C5010E942809B201C1010E9462
:100C00002809A80160E070E0C7010E942C09A50135
:100C1000B701C8010E942C0940E050E0B801C501AD
:100C20000E942C094F81588560E070E089819A818B
:100C30000E942C0940E050E069817A818F8198857B
:100C40000E942C094D815E8160E070E08B819C8167
:100C50000E942C0949855A856B817C818D819E81FA
:100C60000E942C0940E050E06D817E8189859A8543
:100C70000E942C094B855C8560E070E0C1010E94F8
:100C80002C0940E050E0B1018B859C850E942C0925
:100C9000A30160E070E0C2010E942C094D855E85D1
:100CA000B201C3010E942C0940E050E0B3018D85E0
:100CB0009E850E942C09F401D182C0820E94E30B20
:100CC000E9EBF2E0608170E0F401808191810E94A3
:100CD000320960E070E080E090E00E94D80BE9EB20
:100CE000F2E0608170E08EE30E940A0C2E960FB64F
:100CF000F894DEBF0FBECDBFDF91CF911F910F9152
:100D0000FF90EF90DF90CF90BF90AF909F908F902B
:100D10007F906F905F904F903F902F900895AF928B
:100D2000BF92CF92DF92EF92FF920F931F93CF93D8
:100D3000DF935C0140E050E060E070E080E291E031
:100D40000E940709EC01AC0160E070E087EA91E0E5
:100D50000E9407097C01AE0160E070E08FEA91E03B
:100D60000E9407098C01AE0160E070E088EB91E021
:100D70000E9407096C01B701CE010E942809A80151
:100D800060E070E0C7010E942C09A601B701C8010C
:100D90000E942C0940E050E0B801C6010E942C09D5
:100DA000F501D183C083DF91CF911F910F91FF9007
:100DB000EF90DF90CF90BF90AF900895AF92BF9229
:100DC000CF92DF92EF92FF920F931F93CF93DF9317
:100DD000CDB7DEB728970FB6F894DEBF0FBECDBFF4
:100DE0008C01DC01ED91FC91A284B3840F2EF9EB10
:100DF000EF2EF2E0FF2EF02DF70183811F928F93EB
:100E000087E191E09F938F93CE0101966C019F93B0
:100E10008F930E945D0ED5011596DC92CE921497A9
:100E20000E94E30BF701608170E0D801ED91FC9125
:100E3000828593850E94320960E070E080E090E056
:100E40000E94D80BEFEFFFE83197F1F700C00000E8
:100E50000F900F900F900F900F900F9028960FB655
:100E6000F894DEBF0FBECDBFDF91CF911F910F91E0
:100E7000FF90EF90DF90CF90BF90AF9008950E94C9
:100E8000E30B60E070E080E090E00E94D80B68E047
:100E900070E086EC91E00E946E0C60E070E082E011
:100EA00090E00E94D80B65E070E084ED91E00E9434
:100EB0006E0C60E070E083E090E00E94D80B64E08C
:100EC00070E086EE91E00E946E0C60E070E085E0DC
:100ED00090E00E94D80B64E070E08CEF91E00E94FB
:100EE0006E0C60E070E080E090E00E94D80B089506
:100EF0000F931F93CF93DF93EC010E943F078091E4
:100F0000BE0281112FC00E942308833059F5E88169
:100F1000F9810084F185E02D80859185892BC9F7C1
:100F2000F983E8830E94E30B09EB12E0F80160818A
:100F300070E0888199810E9432091092B702109264
:100F4000B60260E070E080E090E00E94D80BF8010B
:100F5000608170E08EE30E940A0CF8011482168210
:100F600083E08383DF91CF911F910F910895CF93F9
:100F7000DF93CDB7DEB72F970FB6F894DEBF0FBE65
:100F8000CDBF1C821D821E821F821886198686E0B4
:100F90008B8382E090E09A8389831D861C861F865E
:100FA0001E86CE010C960E943A05CE010E960E9436
:100FB0008F0609EB12E0F8018481813061F018F0AE
:100FC000823071F012C0F801608170E0CE010C96A1
:100FD0000E946B090CC0CE010E960E94DE0607C06F
:100FE000CE010C960E94780702C0F8011482F80125
:100FF0008281882321F00E94980C8C8303C00E9478
:101000001B088C83F80181818D830E949C0C8E8348
:101010000E94A00C8F83F80186818887CE010196FB
:101020000E94DF03CE010E960E94EF04CE010C96C3
:101030000E94E404C0CF80E00E949403089581E000
:101040000E9494030895CF930E941B08C82F0E940A
:101050001F08C23D38F4863ED8F5C73960F187399C
:10106000D0F40AC0C639B8F5863EA8F58739A8F489
:10107000C73938F1C23D10F5873E00F110C099E63E
:10108000980F9F3470F0C73970F0C63E70F48639FF
:1010900070F482E023C084E021C080E01FC081E0C2
:1010A0001DC083E01BC085E019C085E017C085E046
:1010B00015C080E013C0C63940F003C0C73EF8F643
:1010C000E4CFC73EE0F685E009C08739D0F3F1CF21
:1010D000C739B8F3D1CFC739A0F3F0CFCF91089576
:1010E0000E94B70780E090E00895CF93C82FC4987E
:1010F00083E00E94AD0C8C2F0E94AD0C0E94B10CBD
:10110000C49ACF910895CF93DF93D82FC62FC49858
:1011100082E00E94AD0C8D2F0E94AD0C8C2F0E949E
:10112000AD0CC49ADF91CF910895C4988130910598
:1011300071F01CF4892B39F015C08230910559F0FB
:10114000039769F00FC081E80E94AD0C0BC082E8E4
:101150000E94AD0C07C084E80E94AD0C03C087E874
:101160000E94AD0CC49A08951F93CF93DF93182F5C
:10117000D62FC42FC49885E00E94AD0C812F0E9409
:10118000AD0C8D2F0E94AD0C8C2F0E94AD0CC49A1B
:10119000DF91CF911F910895C49880EC0E94AD0C0F
:1011A000C49A08950E94A50C0E94CC0861E088E2D0
:1011B0000E94830865EB89E20E94830863E48AE267
:1011C0000E9483088EE00E947508807E803851F06E
:1011D00083E192E09F938F930E94470E0F900F90B0
:1011E00081E00895C49860E08FE00E948308C49A6B
:1011F00080E008958AE492E09F938F930E94470EC7
:1012000085EA90E00E94E30A0F900F900895EF9214
:10121000FF920F931F93CF93DF937C01EB018A0121
:101220008CE090E00E94DB0CFC01F582E4821182EC
:101230001082138212821187008713861286D78349
:10124000C683DF91CF911F910F91FF90EF9008958A
:10125000FC01738762870895FC0151834083738387
:1012600062830895EF92FF920F931F93CF93DF93C2
:10127000EC017B0101C0EC018A819B810097D9F7C9
:1012800068E070E080E090E00E94D80B888199814E
:10129000892BA9F000E010E0B7018C819D810E94AC
:1012A0006E0C0990D881C02D0F5F1F4F68E070E071
:1012B000C8010E94D80B88819981892B69F7B701F1
:1012C0008C819D810E946E0CDF91CF911F910F91B7
:1012D000FF90EF9008950F931F93CF93DF93EC014E
:1012E0008B010E942308813049F008F40EC182303E
:1012F00009F45DC0833009F4B3C060C18FEF9FE58E
:101300000197F1F700C000000E942308813009F026
:1013100055C18BE592E09F938F930E94470EE88121
:10132000F9810F900F9082819381892B19F10E948E
:10133000E30B8091B6029091B70201979093B702A8
:101340008093B602B801888199810E94320960E0D9
:1013500070E08091B6029091B7020E94D80BB8015C
:101360008EE390E00E940A0CE881F98182819381EA
:1013700099838883E881F98185818F9384818F9314
:101380008091B7028F938091B6028F938EE592E0A1
:101390009F938F930E94470E80E090EF0197F1F7A3
:1013A0000F900F900F900F900F900F9007C18FEF3D
:1013B0009FE50197F1F700C000000E9423088230EA
:1013C00009F0FCC08FE792E09F938F930E94470E35
:1013D000E881F9810F900F9080819181892B19F11B
:1013E0000E94E30B8091B6029091B7020196909310
:1013F000B7028093B602B801888199810E943209B0
:1014000060E070E08091B6029091B7020E94D80B24
:10141000B8018EE390E00E940A0CE881F981808196
:10142000918199838883E881F98185818F93848173
:101430008F938091B7028F938091B6028F938EE540
:1014400092E09F938F930E94470E80E090EF019768
:10145000F1F70F900F900F900F900F900F90AEC07C
:101460008FEF9FE50197F1F700C000000E9423086D
:10147000833009F0A3C084E892E09F938F930E9489
:10148000470EE881F981828593850F900F90009730
:10149000C9F0998388830E94E30B1092B7021092DF
:1014A000B60260E070E080E090E00E94D80BB801E6
:1014B0008EE390E00E940A0CB801888199810E9415
:1014C000320906C00680F781E02D309709F00995B2
:1014D000E881F98185818F9384818F938091B70210
:1014E0008F938091B6028F938EE592E09F938F93B6
:1014F0000E94470E80E090EF0197F1F70F900F9058
:101500000F900F900F900F9059C08FEF9FE50197AC
:10151000F1F700C000000E94230881114FC08AE843
:1015200092E09F938F930E94470EE881F981008497
:10153000F185E02D0F900F90309721F1F983E8832A
:101540000280F381E02D309739F0F983E88302803F
:10155000F381E02D3097C9F70E94E30B1092B70298
:101560001092B60260E070E080E090E00E94D80B3C
:10157000B8018EE390E00E940A0CB801888199813D
:101580000E943209E881F98185818F9384818F934C
:101590008091B7028F938091B6028F938EE592E08F
:1015A0009F938F930E94470E80E090EF0197F1F791
:1015B0000F900F900F900F900F900F90DF91CF91A1
:1015C0001F910F910895E0910A01F0910B01808322
:1015D0000895E0910A01F0910B018EEA8083E09179
:1015E0000A01F0910B0181EA8083E0910A01F091F8
:1015F0000B018AED8083E0910A01F0910B0182E1F9
:101600008083E0910A01F0910B0188EC8083E091E6
:101610000A01F0910B0188EA8083E0910A01F091C0
:101620000B018FE38083E0910A01F0910B0185EDBE
:101630008083E0910A01F0910B0180E88083E091C2
:101640000A01F0910B0181E88083E0910A01F09199
:101650000B0180E58083E0910A01F0910B0189ED97
:101660008083E0910A01F0910B0181E28083E09197
:101670000A01F0910B0180E28083E0910A01F09170
:101680000B0182E08083E0910A01F0910B018BED68
:101690008083E0910A01F0910B0180E38083E09167
:1016A0000A01F0910B018DEA8083E0910A01F0912B
:1016B0000B011082E0910A01F0910B0184EA808312
:1016C000E0910A01F0910B0186EA8083E0910A0122
:1016D000F0910B018FEA8083E0910A01F0910B01F8
:1016E00080E48083089588309105E0F5FC01E85C92
:1016F000FF4F0C94D50CE0910A01F0910B0180EBA7
:1017000080830895E0910A01F0910B0181EB8083C1
:101710000895E0910A01F0910B0182EB8083089516
:10172000E0910A01F0910B0183EB80830895E09131
:101730000A01F0910B0184EB80830895E0910A0186
:10174000F0910B0185EB80830895E0910A01F091FF
:101750000B0186EB80830895E0910A01F0910B0163
:1017600087EB80830895E0910A01F0910B019C01C1
:101770002F703078332334F421503109206F3F6FBC
:101780002F5F3F4F2083E0910A01F0910B019C01F4
:10179000992314F4215F3F4F35952795359527956B
:1017A0003595279535952795205F3F4F20830895E0
:1017B000CF93DF93EB010E94730BCE010E94B30B1A
:1017C000DF91CF9108950F931F93CF93DF9360E044
:1017D00070E080E090E00E94D80B00E010E012C0C2
:1017E000BE01C8010E94D80BE0910801F0910901E7
:1017F00010822196C038D10599F70F5F1F4F08302E
:10180000110519F0C0E0D0E0EBCFDF91CF911F912F
:101810000F910895E82FF0E0B0976530710501F160
:101820006830710509F439C06430710509F050C0A1
:10183000EE0FFF1FEE0FFF1FED5AFA4F90E0880FDB
:10184000991F880F991F89529B4F2491A0910801DD
:10185000B09109012C933196E817F907B1F738C018
:1018600090E09C01220F331F220F331F820F931F22
:1018700020E030E0805A9109FC01E20FF31FE858A4
:10188000FC4FE491A0910801B0910901EC932F5F06
:101890003F4F2530310581F71BC0EE0FFF1FEE0FC4
:1018A000FF1FEE0FFF1FE058FF4F90E0880F991FBA
:1018B000880F991F880F991F885790402491A091F5
:1018C0000801B09109012C933196E817F907B1F797
:1018D000E0910801F091090110820895CF92DF9202
:1018E000EF92FF920F931F93CF93DF93EC017B0155
:1018F0008C01C12CD12C09C0B701F80181918F0155
:101900000E940A0CFFEFCF1ADF0AFE0101900020AF
:10191000E9F73197EC1BFD0BCE16DF0668F3DF917C
:10192000CF911F910F91FF90EF90DF90CF9008958E
:1019300082E00E949403089583E00E949403089536
:10194000329885B186958695089587B3806B87BB5D
:10195000BE9881E58DB9C49A08958FB9779BFECF63
:1019600008951FB8779BFECF8FB1089585B7806823
:1019700085BF80B7806280BF08955D9BFECF8CB924
:1019800008955C9BFECF8CB1089590BD89B988E124
:101990008AB98EE880BD08950E94C50C61EC7CE098
:1019A0008DEB9CE00E94FC0D0895EE0FFF1F05904B
:1019B000F491E02D09940F931F93CF93DF9382301E
:1019C000910510F482E090E0E091C202F091C30230
:1019D00020E030E0A0E0B0E0309719F14081518183
:1019E0000281138148175907C8F08417950769F4D5
:1019F000109731F012960C93129713961C9327C0F0
:101A00000093C2021093C30222C02115310519F0C0
:101A10004217530718F49A01BD01EF01DF01F801E5
:101A2000DBCF21153105F9F0281B390B24303105A6
:101A300080F48A819B816115710521F0FB019383FC
:101A4000828304C09093C3028093C202FE01329647
:101A500044C0FE01E20FF31F81939193225031099C
:101A6000398328833AC02091C0023091C102232BD0
:101A700041F420910201309103013093C10220937F
:101A8000C00220910001309101012115310541F47E
:101A90002DB73EB74091040150910501241B350B31
:101AA000E091C002F091C102E217F307A0F42E1BEF
:101AB0003F0B2817390778F0AC014E5F5F4F2417B2
:101AC000350748F04E0F5F1F5093C1024093C0028C
:101AD0008193919302C0E0E0F0E0CF01DF91CF91DC
:101AE0001F910F910895CF93DF93009709F481C060
:101AF000FC01329713821282A091C202B091C302FC
:101B0000109781F420813181820F931F2091C002B0
:101B10003091C1022817390751F5F093C102E093C3
:101B2000C00267C0ED0120E030E0CE17DF0740F4CF
:101B30004A815B819E0141155105F1F0EA01F5CF23
:101B4000D383C28340815181840F951FC817D90761
:101B500059F488819981840F951F0296918380831F
:101B60008A819B81938382832115310529F4F09327
:101B7000C302E093C2023DC0E901FB83EA834991BD
:101B80005991C40FD51FEC17FD0761F48081918135
:101B9000840F951F0296E90199838883828193813E
:101BA0009B838A83E0E0F0E012968D919C911397DD
:101BB000009719F0FD01DC01F7CF8D919C911197F1
:101BC0009D012E5F3F4F820F931F2091C0023091E5
:101BD000C1022817390769F4309729F41092C3021B
:101BE0001092C20202C013821282B093C102A0936B
:101BF000C002DF91CF9108950F931F93CF93DF938E
:101C0000009731F46115710519F480E090E03AC055
:101C10008B01EC016EE070E081E090E00E946010CA
:101C2000FC01892B91F380E883830115110571F084
:101C30001387028781E883838091C4029091C50253
:101C4000892B21F4F093C502E093C4022097C9F0D8
:101C5000D187C0878381826083838091C6029091FF
:101C6000C702892B71F4F093C702E093C6028091FA
:101C7000C8029091C902892B21F4F093C902E09324
:101C8000C802CF01DF91CF911F910F910895A0E07D
:101C9000B0E0EDE4FEE00C944311AE014B5F5F4F0A
:101CA000FA0161917191AF018091C6029091C702D2
:101CB0000E947F0EE2E00C945F11AEE0B0E0E3E63C
:101CC000FEE00C9441110D891E8986E08C831A83F5
:101CD00009838FEF9FE79E838D83AE01475E5F4F41
:101CE0006F89788DCE0101960E947F0EEF81F88575
:101CF000E00FF11F10822E96E4E00C945D11ABE032
:101D0000B0E0E5E8FEE00C9433116C017B018A0140
:101D1000FC0117821682838181FFCCC1CE0101961E
:101D20003C01F6019381F70193FD859193FF819129
:101D30007F01882309F4BAC1853239F493FD859176
:101D400093FF81917F01853229F4B60190E00E94D2
:101D50009910E7CF912C212C312CFFE1F315D8F00D
:101D60008B3279F038F4803279F08332A1F4232D6C
:101D700020611DC08D3261F0803369F4232D216014
:101D800016C0832D8260382EE32DE4603E2E2AC0DB
:101D9000F32DF8601DC037FC2DC020ED280F2A3030
:101DA00040F08E32B9F436FC81C1232D2064322EEE
:101DB00019C036FE06C08AE0989E200D1124922E8E
:101DC00011C0EAE02E9E200D1124222EF32DF06288
:101DD0003F2E08C08C3621F4832D8068382E02C037
:101DE000883641F4F70193FD859193FF81917F013E
:101DF0008111B3CF982F9F7D9554933028F40C5FB9
:101E00001F4F9FE399830DC0833631F0833771F004
:101E1000833509F059C021C0F801808189830E5FA4
:101E20001F4F88248394912C530113C02801F2E0A2
:101E30004F0E511CF801A080B18036FE03C0692D01
:101E400070E002C06FEF7FEFC5010E948E104C0161
:101E50008201F32DFF773F2E16C0280122E0420EAB
:101E6000511CF801A080B18036FE03C0692D70E0DE
:101E700002C06FEF7FEFC5010E947C104C01F32D73
:101E8000F0683F2E820133FC1BC0822D90E0881643
:101E90009906B0F4B60180E290E00E9499102A946D
:101EA000F4CFF50137FC859137FE81915F01B601D2
:101EB00090E00E94991021102A9421E0821A910842
:101EC0008114910471F7E8C0843611F0893641F528
:101ED000F80137FE07C060817181828193810C5FB8
:101EE0001F4F08C060817181072E000C880B990B71
:101EF0000E5F1F4FF32DFF763F2E97FF09C0909581
:101F00008095709561957F4F8F4F9F4FF0683F2E62
:101F10002AE030E0A3010E94D510882E861845C023
:101F2000853731F4232D2F7EB22E2AE030E025C0F4
:101F3000932D997FB92E8F36C1F018F4883579F03A
:101F4000B5C0803719F0883721F0B0C0E92FE061C3
:101F5000BE2EB4FE0DC0FB2DF460BF2E09C034FEB2
:101F60000AC0292F2660B22E06C028E030E005C046
:101F700020E130E002C020E132E0F801B7FE07C006
:101F800060817181828193810C5F1F4F06C06081E7
:101F9000718180E090E00E5F1F4FA3010E94D51079
:101FA000882E8618FB2DFF773F2E36FE0DC0232D81
:101FB0002E7FA22E891458F434FE0BC032FC09C0C7
:101FC000832D8E7EA82E05C0B82CA32C03C0B82C60
:101FD00001C0B92CA4FE0FC0FE01E80DF11D8081E7
:101FE000803321F49A2D997EA92E09C0A2FE06C045
:101FF000B394B39404C08A2D867809F0B394A3FCFB
:1020000011C0A0FE06C0B21488F4280C922C9B18B4
:102010000EC0B21460F4B60180E290E00E94991004
:10202000B394F7CFB21418F42B1802C0982C212CBB
:10203000A4FE10C0B60180E390E00E949910A2FEB9
:1020400017C0A1FC03C088E790E002C088E590E0DB
:10205000B6010CC08A2D867859F0A1FE02C08BE231
:1020600001C080E2A7FC8DE2B60190E00E949910C9
:10207000891438F4B60180E390E00E9499109A9494
:10208000F7CF8A94F301E80DF11D8081B60190E04D
:102090000E9499108110F5CF222009F442CEB6019A
:1020A00080E290E00E9499102A94F6CFF601868192
:1020B000978102C08FEF9FEF2B96E2E10C944F11B6
:1020C0000F931F93CF93DF93869F8001879F100DFF
:1020D000969F100D1124C8010E94DB0CEC010097A3
:1020E00029F0A80160E070E00E948710CE01DF9126
:1020F000CF911F910F910895FC01059061507040A0
:102100000110D8F7809590958E0F9F1F0895DC01E0
:1021100001C06D9341505040E0F70895FC016150BB
:10212000704001900110D8F7809590958E0F9F1FF9
:1021300008950F931F93CF93DF93FB01238121FD1C
:1021400003C08FEF9FEF2CC022FF16C0468157813E
:10215000248135814217530744F4A081B1819D0148
:102160002F5F3F4F318320838C93268137812F5FF0
:102170003F4F3783268314C08B01EC01FB010084A1
:10218000F185E02D0995892BE1F6D80116968D9100
:102190009C911797019617969C938E931697CE0154
:1021A000DF91CF911F910F910895FA01AA2728304E
:1021B00051F1203181F1E8946F936E7F6E5F7F4F14
:1021C0008F4F9F4FAF4FB1E03ED0B4E03CD0670F90
:1021D000781F891F9A1FA11D680F791F8A1F911DE3
:1021E000A11D6A0F711D811D911DA11D20D009F433
:1021F00068943F912AE0269F11243019305D319375
:10220000DEF6CF010895462F4770405D4193B3E05D
:102210000FD0C9F7F6CF462F4F70405D4A3318F004
:10222000495D31FD4052419302D0A9F7EACFB4E0B5
:10223000A6959795879577956795BA95C9F700976D
:102240006105710508959B01AC010A2E069457950E
:10225000479537952795BA95C9F7620F731F841F65
:10226000951FA01D08952F923F924F925F926F92FB
:102270007F928F929F92AF92BF92CF92DF92EF9216
:10228000FF920F931F93CF93DF93CDB7DEB7CA1B97
:10229000DB0B0FB6F894DEBF0FBECDBF09942A88C2
:1022A000398848885F846E847D848C849B84AA846A
:1022B000B984C884DF80EE80FD800C811B81AA81F7
:1022C000B981CE0FD11D0FB6F894DEBF0FBECDBFC2
:0822D000ED010895F894FFCF21
:1022D8000000CA0220000014001200104D4F4445AF
:1022E8003A2025640A0D004C6966653A2025640089
:1022F8004D454E55004E65772047616D6500446930
:1023080066666963756C74790053657474696E6781
:102318007300536C69646572004A6F7973746963FA
:102328006B004861726400496D706F737369626C09
:1023380065004279676765726E004368616E67651C
:1023480020666F6E74730046696C6C2073637265E7
:10235800656E00466F6E742073697A652034004696
:102368006F6E742073697A65203500466F6E74202D
:1023780073697A652038004C6966653A20330047EE
:10238800726164653A2041005175616C6974793AEB
:10239800204570696300090947414D45204F56455E
:1023A80052090900596F7520646964207465727256
:1023B80069626C652000426574746572206C75638F
:1023C8006B206E6578742074696D65004D6F766555
:1023D800206A6F79737469636B20746F20726574F7
:1023E8007279000A0D204D4350323531352069731A
:1023F800204E4F5420696E20636F6E666967757250
:102408006174696F6E206D6F6465206166746572B2
:10241800207265736574210A0D0048656C6C6F2025
:10242800776F726C640A0D00257300555000504F89
:10243800533A2025642D2D2D2D2D2D2D43555252E7
:10244800454E54204E4F44453A2025730A0D00440A
:102458004F574E005249474854004C656674005225
:102468006573657420486967682053636F72657384
:1024780000566F6C756D650045617379004D656434
:0424880069756D0005
:00000001FF
