:0200000280007C
:10000000D8080020C1050800BD050800BD0508008E
:10001000BD050800BD050800BD0508000000000082
:10002000000000000000000000000000BD05080006
:10003000BD05080000000000BD0508009D05080082
:10004000BD050800BD050800BD050800BD05080088
:10005000BD050800BD050800BD050800BD05080078
:10006000D90F0800BD05080000000000BD0508000C
:10007000BD050800BD050800BD0508000000000022
:1000800000000000BD050800BD050800BD05080012
:10009000BD050800BD050800BD050800BD05080038
:1000A000BD05080000000000BD050800350B080074
:1000B000BD050800BD050800BD050800BD05080018
:1000C000BD050800BD050800BD050800BD05080008
:1000D000BD050800F9010800BD050800BD050800C0
:1000E000BD050800BD050800BD0508006104080045
:1000F000BD05080010B5054C237833B9044B13B186
:100100000448AFF300800123237010BD3C0400209D
:1001100000000000801808000C4B43B10C4810B5DB
:100120000C49AFF300800C48036823B910BD0A489E
:10013000036833B97047094B002BF7D0BDE8104076
:100140001847064B002BF5D0184700BF00000000F1
:1001500080180800400400208018080000000000FB
:10016000214B1A6842F001021A602049D1F800219F
:1001700042F02002C1F8002101F500614A6842F016
:1001800004024A6081225A601A6C1A641A6C22F4C2
:1001900000721A641A6C1A6472B6154A516841F0FA
:1001A00020015160402182F8251362B64FF0FF32E2
:1001B0009A625A6A42F080625A625A6C42F48072C1
:1001C0005A645A6C42F0807242F480325A641A695E
:1001D00042F001021A611A6842F002021A60054AEE
:1001E000C3F8E420704700BF00000C4000060E403A
:1001F00000E100E001434441024B1B6B0122024B32
:100200001A60704700000C405804002008B50A4BE3
:100210001B68012B00D008BD084B1B6DB3F5806F28
:10022000F9D90368013303600022034B1A600120EF
:10023000034B9847EFE700BF5804002000000C4034
:100240007D0508002DE9F0435518082998BF082AB4
:100250006AD80E46082D67DC354A136823F001037F
:1002600013601369334B4FF440745C641C6F24F0CB
:1002700003041C6703245C605C66A3F500632E4CDA
:10028000C3F80C41D3F8004144F40064C3F80041C2
:100290005061A94246DC0A460024A146DFF890805E
:1002A0004FF0005C4FF0807E0127530103F14020A6
:1002B00000F53020C0F804924344C3F808C2C0F8E7
:1002C00000E2D3F81C0240F40000C3F81C0207FA55
:1002D00002F31C4301329542E7DA81B1002314494D
:1002E0004FF000554FF0407001EB4312C2F8085236
:1002F00003F110025201885001339E42F4D10C4B9D
:100300005C6072B60D4A516841F400615160502141
:1003100082F82B1362B61A6842F001021A600020BC
:10032000BDE8F0830024D8E70120BDE8F08300BFDA
:1003300000400B40000E0E402B10001000E100E0CA
:1003400008B502220121014B984708BD450208006B
:100350004B0103F1402303F53023D3F8103213F49B
:10036000000F36D003881C4A02EA834242F0005252
:100370004B0103F1402303F53023C3F808228378AF
:10038000072B84BF07238370827943791B0443EAD8
:100390000263C2781343027943EA0223490101F15F
:1003A000402101F53021C1F81432827A437A1B04CE
:1003B00043EA0263C2791343027A43EA0223C1F893
:1003C000183283781B0443F40003C1F81C32002068
:1003D00070470120704700BF0000FC1F4B0103F174
:1003E000402303F53023D3F8103213F4000F33D039
:1003F00030B44B0103F1402303F53023D3F814222A
:10040000D3F81842D3F80852C5F38A450580D3F8CB
:100410001032C3F3034383701D465BB103300023E6
:10042000032BD9BF0270120A0470240A0133013071
:10043000AB42F5D1094B01F1100252014FF080702F
:10044000985003EB4111D1F81C3243F40003C1F87A
:100450001C32002030BC70470120704700400B4028
:1004600010B5154B1C6914F0060F10D014F0020FD4
:1004700019D114F0040F1BD002211048104B9847DB
:100480000E4B9A781AB1002301339342FCD114F039
:10049000010F02D00122084B9A604FF40062094B11
:1004A000C3F8842110BD01210448054B9847E7E7B4
:1004B0000548064B9847E3E700400B4064040020E2
:1004C000DD03080000E100E0E4170800110E080059
:1004D0000C4B1A68927882701A68128802801B6826
:1004E0009A786AB110B402300022064C1344DB78CB
:1004F00000F8013F0132236899789142F6DC10BC84
:10050000704700BF0000002010B40B4B00221A629D
:1005100001201860094CD4F8001141F04001C4F8E2
:10052000001104F52064616841F4004161605A6083
:1005300018611A6210BC704700800C4000060E4023
:10054000014B1862704700BF00800C4042F6041354
:1005500003FB00F020F07F4020F003000138054B42
:10056000586000229A601021034A82F82310032267
:100570001A60704710E000E000ED00E008B5054BA0
:1005800018600120044B9847024A1368002BFCD1E5
:1005900008BD00BF5C0400204D050800054B1B682A
:1005A0001BB90022044B1A607047024A1368013BD2
:1005B000136070475C04002010E000E0FEE70000DC
:1005C00008B5184B184A9A4210D0184B154A9A424F
:1005D0000CD2013B9B1A23F003030433134412494A
:1005E00051F8040B42F8040B9A42F9D1104B114A0E
:1005F0009A420AD2013B9B1A23F0030304331344AB
:10060000002142F8041B9342FBD10B4B23F06043C3
:1006100023F07F03094A9360094B9847094B984799
:10062000FEE700BF00000020801808003C04002006
:10063000D80400203C0400200000080000ED00E089
:1006400075160800050808004FF48063204A1360FF
:1006500002F5007213601F4B1B6A13F0807F07D1F5
:100660001D4A1C4B1A621A46936E13F0010FFBD001
:100670001A4A184B1A621A46936E13F4803FFBD045
:10068000144A136B23F0030343F001031363936EC7
:1006900013F0080FFBD0124A0E4B9A621A46936E63
:1006A00013F0020FFBD011220A4B1A631A46936E05
:1006B00013F0080FFBD01222064B1A631A46936EF2
:1006C00013F0080FFBD0074A074B1A60704700BFB2
:1006D000000A0E4000060E400908370009083701DD
:1006E000013F0D2000BD01050400002080B588B049
:1006F00000238DF817308DF818308DF819308DF8EB
:100700001A308DF81B308DF81C3006228DF816201B
:100710000222ADF814208DF80B3001238DF80A3039
:100720000523ADF80830224B98474FF40042214B87
:100730005A60214B98472148214B9847214B9847B5
:10074000214B9847214B9847214B9847214B98477D
:100750006FF001030193DFF8A8801F4F002605A862
:10076000C0479DF818303B809DF81B10012908BF39
:1007700001961A481A4DA84708AC54F81C1D194890
:10078000A8472046184B9847019B8DF80B303146FF
:1007900002A8164B98479DF81900154B9847154B22
:1007A0009847154B98479DF81A00144B9847D6E781
:1007B00049060800501A0E404D0F08006115290027
:1007C00041030800350E080061010800050F08000C
:1007D00015080800F5090800080000201018080096
:1007E000110E0800241808000D020800510308002B
:1007F000AD110800D50E08008D0E08002D0F080061
:10080000D104080008B5024B9847002008BD00BF7E
:10081000ED06080010B53F4B98473F4B1A6942F46C
:1008200080421A613D4C226842F001022260226837
:1008300042F002022260226842F004022260226832
:1008400042F400722260226842F480622260226ECA
:1008500042F001022266226E42F002022266226EFD
:1008600042F004022266226E42F400722266226E78
:1008700042F480622266226B42F001022263226906
:1008800042F001022261226942F0020222612269E1
:1008900042F004022261226942F40072226122695C
:1008A00042F480622261626B42F001026263226B59
:1008B00042F002022263626B42F004026263226B26
:1008C00042F400722263626B42F4806262631A69CE
:1008D00042F400521A6103F540631A6842F4FF7251
:1008E0001A605A6942F4FF725A611A6A42F4FF723E
:1008F0001A621A6E42F4FF721A66636B43F00203C7
:1009000063631420064B9847236B43F00203236371
:1009100010BD00BF0905080000060E4000140E407F
:100920007D05080040B103280CD1074A136B43F43E
:10093000806313630020704703494A6B42F480626E
:100940004A6370470120704700140E4010B50C46F2
:10095000054B984718B10020044B984710BD20461E
:10096000024B984710BD00BF25090800410508004B
:10097000A0F17E03642000FB03F0044B83FB002303
:100980000344C017C0EBA31000B270478320088255
:100990002DE9F8430D4C012565634FF00409C4F8B7
:1009A000349028460A4FB8470A4ED6F83C80C4F81F
:1009B00030902846B847F06B0223636323632563B6
:1009C000C0B240EA082080B2BDE8F88300140E40AF
:1009D0007D05080000120E4000B2A0EB0020044B81
:1009E00083FB0023C017C0EB633000B2704700BF29
:1009F000AD8BDB681A4A136943F000631361194B2E
:100A00005A6842F000725A601A6F42F000721A6718
:100A1000A3F5C2235A685A605A6842F400425A60E9
:100A20005A6842F480425A605A6842F400325A606E
:100A30005A6842F480225A600B4ADA610B4A5A61C2
:100A400014225A6272B60A4A116841F000611160BC
:100A5000302182F81B1362B605221A60704700BF6E
:100A600000060E4000100E40802C8000A086010081
:100A700000E100E008B5024B9847024B984708BDDB
:100A800091090800D909080000B585B001A8044BF8
:100A900098479DF80700034B984705B05DF804FBA5
:100AA000D1040800710908002DE9F041174F002317
:100AB0003B80174B98470446164B9847241A24B29C
:100AC000154B1D6825441D60144EB7F90000B04752
:100AD000134F1449B84780462846B0470146404660
:100AE000B847054604EB8400C000B04701462846DD
:100AF0000D4B98470D4B984701B2002CBABF4942A5
:100B0000002003200A4B9847BDE8F0810800002030
:100B1000890A0800750A080060040020B511080061
:100B20005D1208000BD7A33C4D100800E915080022
:100B30004D09080008B5024B1B6A024B984708BDD7
:100B400000000840A90A08002DE9F8430D46161ECA
:100B500048DD0A78002A35D00A460024013412F80C
:100B6000011F0029FAD1A6422DDC002403F0020265
:100B7000002A0CBF4FF020084FF0300813F001039B
:100B800023D1002C28DD26465FFA88F9184F484605
:100B9000B847013EFBD1287888B1154FB8470134DA
:100BA00015F8010F0028F9D1002E08DD35465FFA4F
:100BB00088F80F4F4046B847013DFBD134442046EA
:100BC000BDE8F8830024341BD0E72646287808B116
:100BD0000024E2E70024E7E726461C46DBE74FF067
:100BE0002008D8E713F00104F9D04FF02008EDE712
:100BF000B50F0800F0B585B0074681B30C460BB1C0
:100C00000A2A38D000238DF80F300026002946D05C
:100C10000DF10F050C993A39B4FBF2F302FB1343C3
:100C2000092BC8BF5B18303305F8013DB4FBF2F463
:100C3000002CF1D156B10A9B1BB10B9B13F0020F94
:100C400025D12D2305F8013C013D00260B9B0A9A76
:100C500029463846144CA047304405B0F0BD302337
:100C60008DF8043000238DF805300B9B0A9A01A9FA
:100C70000D4CA047F1E70029C4DA4C4200238DF85F
:100C80000F300DF10F05002CD5D00126C0E72D2027
:100C9000064B98470A9B013B0A930126D6E71E465E
:100CA0000DF10F05D2E700BF490B0800B50F080092
:100CB0002DE9F04F87B080460B78002B00F0948030
:100CC0008B46174600254E4EDFF83CA1DFF83C91DD
:100CD00046E0002270E0396804374A48002908BF1E
:100CE00001464046D047054435E039680437612065
:100CF00002900193009201230A224046C84705440E
:100D000029E03968043761200290019300920023A2
:100D100010224046C84705441DE039680437412089
:100D2000029001930092002310224046C8470544D8
:100D300011E039680437612002900193009200238A
:100D40000A224046C847054405E0A3469BF8000038
:100D5000B04701355C4604F1010B6378002B44D0A9
:100D6000252BF3D10BF101049BF80130002B3CD073
:100D7000252BEAD02D2B06BF0BF102040123002303
:100D80002278302A05D143F0020314F8012F302ACB
:100D9000F9D02178A1F13002D2B2092A99D80022E3
:100DA00002EB8202303901EB420214F8011FA1F17B
:100DB0003000C0B20928F3D973298CD0642994D0AB
:100DC00078299ED05829A8D07529B2D06329C2D1DC
:100DD000396804378DF8141000218DF8151005A915
:100DE0004046D0470544B6E70025B8F1000F03D0D0
:100DF000D8F8003000221A70284607B0BDE8F08FFE
:100E0000B50F080030180800490B0800F50B080062
:100E10000FB400B583B004AA52F8041B019200205D
:100E2000034B984703B05DF804EB04B0704700BF74
:100E3000B10C0800114B5A6842F400225A601A6F34
:100E400042F400221A670E4B1C221A600D49D1F899
:100E5000002142F01002C1F8002140F20B210A4AA1
:100E600011604EF660210C32116040F68C21083A78
:100E700011605A6842F020025A60704700120E401A
:100E80000040094000060E40A042094010B504464B
:100E90000849094B984760B908492046084B9847CC
:100EA00038B908492046084B9847084B9847084BE3
:100EB000186010BD0000614499150800004003450A
:100EC000D5150800000040405D12080035160800E6
:100ED000A442094008B50549054B98470549064B0A
:100EE00098470649064B984708BD00BF00007F435E
:100EF000C5130800000096445D120800000061441C
:100F00004D100800074A136943F480531361064BE0
:100F10001A6842F080621A601A6942F080621A61AF
:100F2000704700BF00060E4000100E40012805D09B
:100F3000054A136B43F0806313637047024A536B97
:100F400043F080635363704700100E40164B00223D
:100F50001A705A70154B4FF44071596459601A6FEA
:100F6000186F024022F440721A6759664FF480727B
:100F7000A3F500631A6103F50073AC21196040F218
:100F8000232119624FF40061596040F20221C3F835
:100F900020114FF0FF31D960E121996004490A60C6
:100FA00050221A60704700BF70040020000E0E40EF
:100FB00000E100E0074B5B6913F0020F08D0054B1E
:100FC000D8611A46536913F4007FFBD000207047A4
:100FD0000120704700080E4008B5154B5B6913F0FF
:100FE000E00F03D04FF4A871114A116013F0010F04
:100FF00012D010484278531C594203F03F0301F0CD
:101000003F0158BF4B4201788B4206D0084988699E
:1010100008490A4490704B7008BD0748074B984731
:10102000034B9A69034B59780B449A7008BD00BF73
:1010300000080E407004002038180800110E080047
:1010400080F0004002E000BF81F0004142001FBF7D
:101050005FEA410392EA030F7FEA226C7FEA236C86
:101060006AD04FEA1262D2EB1363C1BFD21841407B
:1010700048404140B8BF5B42192B88BF704710F011
:10108000004F40F4000020F07F4018BF404211F0B4
:10109000004F41F4000121F07F4118BF494292EA1C
:1010A000030F3FD0A2F1010241FA03FC10EB0C0048
:1010B000C3F1200301FA03F100F0004302D54942D5
:1010C00060EB4000B0F5000F13D3B0F1807F06D382
:1010D00040084FEA310102F10102FE2A51D2B1F17A
:1010E000004F40EBC25008BF20F0010040EA03006F
:1010F0007047490040EB000010F4000FA2F101021C
:10110000EDD1B0FA80FCACF1080CB2EB0C0200FAA5
:101110000CF0AABF00EBC25052421843BCBFD040F3
:101120001843704792F0000F81F4000106BF80F46D
:1011300000000132013BB5E74FEA41037FEA226C30
:1011400018BF7FEA236C21D092EA030F04D092F0FB
:10115000000F08BF0846704790EA010F1CBF00202F
:10116000704712F07F4F04D1400028BF40F000408C
:10117000704712F100723CBF00F50000704700F0AC
:10118000004343F0FE4040F4000070477FEA2262D3
:1011900016BF08467FEA23630146420206BF5FEAA4
:1011A000412390EA010F40F4800070474FF00003A4
:1011B00004E000BF10F0004348BF40425FEA000C6B
:1011C00008BF704743F0964301464FF000001CE013
:1011D00050EA010208BF70474FF000030AE000BF69
:1011E00050EA010208BF704711F0004302D54042A7
:1011F00061EB41015FEA010C02BF84460146002019
:1012000043F0B64308BFA3F18053A3F50003BCFA33
:101210008CF2083AA3EBC25310DB01FA02FC6344E0
:1012200000FA02FCC2F12002BCF1004F20FA02F2E7
:1012300043EB020008BF20F00100704702F12002DA
:1012400001FA02FCC2F1200250EA4C0021FA02F23B
:1012500043EB020008BF20EADC7070474FF0FF0C40
:101260001CEAD0521EBF1CEAD15392EA0C0F93EA3B
:101270000C0F6FD01A4480EA010C400218BF5FEADD
:1012800041211ED04FF0006343EA501043EA511150
:10129000A0FB01310CF00040B1F5000F3EBF49004A
:1012A00041EAD3715B0040EA010062F17F02FD2A4E
:1012B0001DD8B3F1004F40EBC25008BF20F0010031
:1012C000704790F0000F0CF0004C08BF49024CEA48
:1012D000502040EA51207F3AC2BFD2F1FF0340EADA
:1012E000C250704740F400004FF00003013A5DDC4B
:1012F00012F1190FDCBF00F000407047C2F100028C
:10130000410021FA02F1C2F1200200FA02FC5FEA78
:10131000310040F1000053EA4C0308BF20EADC70C2
:10132000704792F0000F00F0004C02BF400010F434
:10133000000F013AF9D040EA0C0093F0000F01F0E1
:10134000004C02BF490011F4000F013BF9D041EA03
:101350000C018FE70CEAD15392EA0C0F18BF93EA05
:101360000C0F0AD030F0004C18BF31F0004CD8D12F
:1013700080EA010000F00040704790F0000F17BFB6
:1013800090F0004F084691F0000F91F0004F14D0FC
:1013900092EA0C0F01D142020FD193EA0C0F03D154
:1013A0004B0218BF084608D180EA010000F0004057
:1013B00040F0FE4040F40000704740F0FE4040F432
:1013C000400070474FF0FF0C1CEAD0521EBF1CEAD1
:1013D000D15392EA0C0F93EA0C0F69D0A2EB0302EF
:1013E00080EA010C49024FEA402037D04FF0805389
:1013F00043EA111143EA10130CF000408B4238BF4E
:101400005B0042F17D024FF4000C8B4224BF5B1A5B
:1014100040EA0C00B3EB510F24BFA3EB510340EAA9
:101420005C00B3EB910F24BFA3EB910340EA9C0057
:10143000B3EBD10F24BFA3EBD10340EADC001B01C7
:1014400018BF5FEA1C1CE0D1FD2A3FF650AF8B426B
:1014500040EBC25008BF20F0010070470CF0004C78
:101460004CEA50207F32C2BFD2F1FF0340EAC250A3
:10147000704740F400004FF00003013A37E792F064
:10148000000F00F0004C02BF400010F4000F013AC2
:10149000F9D040EA0C0093F0000F01F0004C02BFBD
:1014A000490011F4000F013BF9D041EA0C0195E726
:1014B0000CEAD15392EA0C0F08D142027FF47DAFBF
:1014C00093EA0C0F7FF470AF084676E793EA0C0FAF
:1014D00004D14B023FF44CAF08466EE730F0004CAD
:1014E00018BF31F0004CCAD130F000427FF45CAF3D
:1014F00031F000437FF43CAF5FE700BF4FF0FF3CAB
:1015000006E000BF4FF0010C02E000BF4FF0010CFD
:101510004DF804CD4FEA40024FEA41037FEA226CC6
:1015200018BF7FEA236C11D001B052EA530C18BFE8
:1015300090EA010F58BFB2EB030088BFC81738BF4D
:101540006FEAE17018BF40F0010070477FEA226C3B
:1015500002D15FEA402C05D17FEA236CE4D15FEA37
:10156000412CE1D05DF8040B704700BF844608466B
:101570006146FFE70FB5FFF7C9FF002848BF10F12C
:10158000000F0FBD4DF808EDFFF7F4FF0CBF012071
:1015900000205DF808FB00BF4DF808EDFFF7EAFFFB
:1015A00034BF012000205DF808FB00BF4DF808EDB6
:1015B000FFF7E0FF94BF012000205DF808FB00BFAB
:1015C0004DF808EDFFF7D2FF94BF012000205DF831
:1015D00008FB00BF4DF808EDFFF7C8FF34BF01203E
:1015E00000205DF808FB00BF4FEA4002B2F1FE4F59
:1015F0000FD34FF09E03B3EB12620DD94FEA0023D5
:1016000043F0004310F0004F23FA02F018BF4042AD
:1016100070474FF00000704712F1610F01D1420294
:1016200005D110F0004008BF6FF0004070474FF048
:101630000000704742000ED2B2F1FE4F0BD34FF0C4
:101640009E03B3EB126209D44FEA002343F0004338
:1016500023FA02F070474FF00000704712F1610F5B
:1016600001D1420202D14FF0FF3070474FF000002D
:10167000704700BF70B50F4E0F4D761BB61018BFE8
:10168000002405D0013455F8043B9847A642F9D10F
:101690000A4E0B4D00F0E2F8761BB61018BF00247E
:1016A00006D0013455F8043B9847A642F9D170BDE5
:1016B00070BD00BF6818080068180800701808009E
:1016C00068180800024B13B1024800F005B87047D3
:1016D00000000000E5160800002301461A461846DF
:1016E00000F01EB838B50A4C0A4D641BA4100AD08D
:1016F00004F18043013B05EB8305013C55F80439B7
:101700009847002CF9D1BDE8384000F0B1B800BFCF
:10171000801808007C180800704700BF704700BFA1
:101720002DE9F8432C4D0646286898460F46914609
:10173000FFF7F2FF294B1C68D4F84831002B3ED04C
:101740005A681F2A1CDC02F1010E76B1012103EB5D
:101750008204C4F88890D3F8880191400843022E8F
:10176000C3F88801C4F8088123D00232C3F804E02A
:10177000286843F82270FFF7D1FF0020BDE8F88306
:10178000174B0BB34FF4C870AFF300800346D8B1CA
:101790000020D4F848114FF0010E5860196002463D
:1017A000C4F84831C3F88801C3F88C01002EDCD09E
:1017B000CCE7D3F88C010143C3F88C11D5E704F5CD
:1017C000A673C4F84831BBE72868FFF7A7FF4FF0BE
:1017D000FF30BDE8F88300BF380400205818080027
:1017E0000000000043414E30206D657373616765F2
:1017F000206172726976656420696E206E6F6E2D4D
:1018000075736564206D61696C626F780A0D000004
:1018100047414D454F56455220464C41473A2025B9
:10182000640A0D0053434F52453A2025640A0D00C7
:10183000286E756C6C2900004552523A2055415271
:10184000542052582062756666657220697320665E
:10185000756C6C0A0D00000010000020F8B500BF88
:10186000F8BC08BC9E467047C51608001901080060
:10187000F8B500BFF8BC08BC9E467047F5000800EC
:101880006404002000093D00010000000000000089
:1018900000000000FC02002064030020CC030020B4
:1018A0000000000000000000000000000000000038
:1018B0000000000000000000000000000000000028
:1018C0000000000000000000000000000000000018
:1018D0000000000000000000000000000000000008
:1018E00000000000000000000000000000000000F8
:1018F00000000000000000000000000000000000E8
:1019000000000000000000000000000000000000D7
:1019100000000000000000000000000000000000C7
:1019200000000000000000000000000000000000B7
:1019300000000000000000000100000000000000A6
:101940000E33CDAB34126DE6ECDE05000B0000006B
:101950000000000000000000000000000000000087
:101960000000000000000000000000000000000077
:101970000000000000000000000000000000000067
:101980000000000000000000000000000000000057
:0C1CB0000000000000000000B404002050
:040000038000000079
:00000001FF
